:100000000C943C010C94B5080C9483010C9483016E
:100010000C9483010C9483010C9483010C94830150
:100020000C9483010C9483010C94701A0C94421B61
:100030000C9484150C9483010C9483010C9483011B
:100040000C9483010C9483010C9483010C94830120
:100050000C9483010C94EC150C9483010C94830193
:100060000C9483010C9483010C9483010C94830100
:100070000C9483010C9483010C9483010C948301F0
:100080000C9483010C9483010C9483010C948301E0
:100090000C9483010C9483010C9483010C948301D0
:1000A0000C9483010C9483010C948301BC0BBC0B56
:1000B000EE0BEE0B3B0C790D790D790D5B0CF80C0A
:1000C000090D090D690D790D790D720DF70DF70DFB
:1000D000090E090E000E090E090E090EF70DF70D97
:1000E000050E090E090E050EAF1BD61BC81CD61B2C
:1000F000C81C221C451CC81C9B1CAA1C29001E00D5
:100100001F002000210022002D00350014001A00DD
:100110000800150017002F00E0000400160007007B
:1001200009000A002B00E1001D001B000600190059
:10013000050000003900AA00E200A9003600E30033
:100140002C00A600270026002500240023002E00F6
:100150003100130012000C0018001C0030003400A5
:1001600033000F000E000D000B002A00E5003800E0
:10017000370036001000110000004F0052005100FF
:10018000500037002A00280004033000000012034A
:100190004500720067006F00440061007300680052
:1001A00000000C034F006D006B0062006400000053
:1001B0000403090409023B00020100A0FA0904003B
:1001C0000001030101000921110100012240000783
:1001D00005810308000A0904010001030000000969
:1001E00021110100012236000705820320000A12B6
:1001F00001100100000008EDFE6060000101020333
:100200000105010980A10185031A81002A830016D6
:100210000100260300950175108100C0050C09013D
:10022000A10185041A01002A9C02160100269C02E5
:10023000950175108100C005010906A10105071986
:10024000E029E715002501950875018102950175E2
:100250000881010507190029FF150026FF009506F2
:100260007508810005081901290595057501910298
:10027000950175039101C00011241FBECFEFDAE094
:10028000DEBFCDBF04B603FE27C080915E02909111
:100290005F02A0916002B09161028730904BA7404D
:1002A000B04BD1F410925E0210925F021092600285
:1002B0001092610214BE84B7877F84BF0FB6F89492
:1002C000A895809160008861809360001092600022
:1002D0000FBEE0E0F8E3099511E0A0E0B1E0ECE842
:1002E000FAE302C005900D92AA38B107D9F722E0CF
:1002F000AAE8B1E001C01D92AE35B207E1F70E9455
:1003000099170C94441D0C9400000C943404089527
:1003100081E0089581E008950C948A011F93CF93A2
:10032000DF9300D000D01F92CDB7DEB749835A8348
:100330002091AD0189819A81211112C0662349F073
:100340000E941C13182F682F89819A810E94C11264
:1003500003C00E94F012182F69817A81812F04C096
:100360000E941C1369817A810F900F900F900F905B
:100370000F90DF91CF911F910C943502FC014081C9
:1003800051816281738184810C948E010E944C148E
:10039000811102C00E94EC140C9485010C94360467
:1003A00008950C94D00181E008950C94D301CF936B
:1003B000C82F0E94D1018C2F0E94D501CF910895A2
:1003C0000E94E70D0E9487012FEF84E39CE02150FB
:1003D00080409040E1F700C0000087E797E79093E6
:1003E0000108809300080C9412160F931F93CF936B
:1003F000DF93EC010E94BE018C01BE010E948C01C2
:10040000882349F1BE01C8010E946206882319F1C0
:10041000BE01C8010E94A3068823E9F0BE01C801FD
:100420000E94CE078823B9F08A81882369F00115DC
:100430008CE5180731F00E3D1C4531F40E94EC1498
:100440000AC00E94E00107C0CE01DF91CF911F9149
:100450000F910C94880180E0DF91CF911F910F9153
:10046000089580E090E00895089597E0799FF00165
:10047000112496E4899FE00DF11D1124E60FF11D72
:10048000EE0FFF1FE450FF4F859194910895880F60
:10049000991FFC01E857FE4F859194910895CF93E1
:1004A000DF930E9435020E945D03EC01811520E577
:1004B000920708F041C0811530E4930708F0C7C0E7
:1004C000803E910520F5803C910508F0B1C0883A46
:1004D000910570F4853A910508F0A2C0813091052C
:1004E00009F4E7C008F4E3C0049708F0E2C0DFC0F5
:1004F0008F3B910508F0DBC0C85AD0E0CC0FDD1F60
:10050000CA5EDE4F0990D881C02DD464D2C0811557
:1005100040E2940750F4C11581E0D80708F0C9C043
:10052000C83ED10508F4C5C0C2C0811520E39207BA
:1005300008F084C09F707EC0811535E5930708F0F0
:1005400044C0811544E5940708F098C0C11582E5C0
:10055000D80708F5C11521E5D20708F07BC08C2F1C
:10056000837021E030E002C0220F331F8A95E2F74A
:100570003C68CE0174E0969587957A95E1F7837093
:10058000382BCF70C695C69580E2C89FE001112434
:10059000C22BD32B8EC02C2F26952695CE0183708F
:1005A0009927C115D34508F05AC040E2249F900115
:1005B0001124C1E0D0E002C0CC0FDD1F8A95E2F724
:1005C0002C2B3D2BE901DC6874C0811549E59407AB
:1005D000A0F4C11588E5D80708F055C0C11526E577
:1005E000D20708F064C08C2F0E94F1038F71C82FCE
:1005F000D0E0DC2FCC27D0625CC081153AE59307B0
:1006000008F446C090568115904208F050C08D2FD6
:100610008F710E94F103DD27D0628F71D82B49C002
:10062000C55AD0E0CC5BDE4FC881D0E0D06441C079
:10063000805C91090E944702EC013BC09927D3FFDF
:1006400003C0EC01D86C35C0EC01D06C32C0DF7057
:10065000D06A2FC0DC2FCC27C16FD06A2AC040E2FD
:10066000249F90011124C1E0D0E002C0CC0FDD1F17
:100670008A95E2F7C22BD32BDA681BC0D82FCC2780
:10068000C46FD06A16C0DC2FCC27C06FD06A11C0EF
:100690008F700E94F10394E0D695C7959A95E1F783
:1006A000CF70D0E0DC2FCC27D069C82B02C0C0E0CF
:1006B000D0E0CE01DF91CF9108958238910569F1A4
:1006C000B0F48133910509F46DC048F48932910585
:1006D00009F463C08A32910509F469C0089585332D
:1006E000910509F455C089339105B9F00895833E09
:1006F000910569F138F4803E9105B1F0823E910593
:1007000009F10895863E9105A9F1873E9105B9F159
:10071000843E910509F064C023C020914F0220FD62
:100720004FC021FD4DC0089580914F0280FD44C00F
:100730008091500280FF44C080914F0284FD42C0EE
:1007400083EE4DC080914F0282FF38C0F5CF80917B
:100750004F0282FD33C08091500280FD31C0ECCF4A
:100760008091500281FF32C080914F0284FD2AC0E7
:1007700087EE35C080914F0283FF26C0F5CF809170
:100780004F0283FD21C08091500281FD1FC0ECCF3C
:1007900080914F0285FD1CC01DC080914F0285FDD8
:1007A00019C016C080914F0286FD16C017C08091F7
:1007B0004F0286FD13C010C089E311C082EE0FC046
:1007C00080EE0DC080E00BC086EE09C084EE07C04D
:1007D00089E205C085E303C08AE201C081E390E0BD
:1007E000089590914F0292FF0DC0282F2871283054
:1007F00019F4877F846006C0282F2471243011F4F7
:100800008B7F886093FF0DC0282F2871283119F441
:10081000877E846106C0282F2471243111F48B7ED9
:1008200088612091500220FF0DC0382F3871383078
:1008300019F4877F816006C0382F3171313011F48F
:100840008E7F886021FF0DC0282F2871283119F470
:10085000877E816106C0282F2171213111F48E7E9F
:10086000886194FD877E0895089508950C94350459
:10087000E82FF0E0E15CFD4F80810895089580EA63
:100880008A95F1F7089508950E94B40580910001BA
:1008900080910001811102C095E001C090E0909329
:1008A0004A0285E0891B80934902AEE4B1E041E051
:1008B00050E025E02A0F8D91E82FE295EF70F0E0EF
:1008C00031A18F70BA0102C0660F771F8A95E2F7D7
:1008D000CB01962F9095932391A392A1892B82A36C
:1008E0002A13E9CFA7E4B1E041E050E027E02A0F66
:1008F0008D91E82FE295EF70F0E031A18F70BA0191
:1009000002C0660F771F8A95E2F7CB01962F90956C
:10091000932391A392A1892B82A32A13E9CFAFE35A
:10092000B2E0E5E3F2E08AE08E0F11921D928E13A1
:10093000FCCF85E00E945E050C94C6010E949505DF
:10094000882321F18091490290E0815C9D4F0E94B3
:10095000CB05811117C080918A018F5F80938A0136
:10096000863090F02091490280E090E030E0FC0178
:10097000E20FF31FE15CFD4F108201968530910577
:10098000B1F702C010928A010C94CE0180914A0204
:1009900090E0815C9D4F0E94E6050C9443044F92C9
:1009A0005F926F927F928F929F92AF92BF92CF92FF
:1009B000DF92EF92FF920F931F93CF93DF938EE41A
:1009C000682E81E0782E05E312E0D12C88248394F0
:1009D000912C25E0C22EC00E5801D8015C901C92CB
:1009E000F30181913F01C82FC295CF70D0E099A14A
:1009F0008F70740101C0EE0C8A95EAF7892F8E2959
:100A000089A38AA14E2C409484218AA30E943F048A
:100A1000E7E4F1E020E030E04191A42FA295AF702F
:100A2000B0E090968C91D8015C9190E04F7002C03C
:100A3000959587954A95E2F780FD07C0882D022E8F
:100A400001C0880F0A94EAF701C080E0852BD80125
:100A50008C932F5F3F4F27303105F1F689A1482253
:100A600049A28AA1E82AEAA20F5F1F4F81E0F5019F
:100A70009081591201C080E0D82AC012ADCF609198
:100A80004A0270E0615C7D4F2D2D45E085E392E0E8
:100A90000E945F050E949E048D2DDF91CF911F91D2
:100AA0000F91FF90EF90DF90CF90BF90AF909F900D
:100AB0008F907F906F905F904F9008950895FF9270
:100AC0000F931F93CF93DF938C01F62ED72FC42F54
:100AD000222349F081E080938D010E94B615909306
:100AE0008C0180938B0180918D018823C1F08091CE
:100AF0008B0190918C010E94C215069780F0EF2D1A
:100B0000FD2FD8014C2F50E0CD01801B910B841795
:100B100095071CF48D918193F7CF10928D01DF9191
:100B2000CF911F910F91FF90089580918E018111B7
:100B300012C08091D80080618093D8008AE18A95A4
:100B4000F1F700C08091D90080FD02C082E001C0B1
:100B500081E080938E0181E090918E01913009F0C7
:100B600080E008950C9495050E94B20580930001E1
:100B70000E94950581110C94BF050C94C50561E098
:100B800070E081E091E00C945A0861E070E081E04F
:100B900091E00C946308CF93DF93D82FC92F0E9464
:100BA0000609892B79F4ED2FFC2F80E090E0DC0121
:100BB000A057BE4F2C912193019685309105B9F72E
:100BC00081E001C080E0DF91CF91089520E030E026
:100BD000FC014191CF01F901E057FE4F40832F5FA7
:100BE0003F4F25303105A1F708950F931F93CF9301
:100BF000DF93C62FD42F022FFC0182818823C9F0F6
:100C0000609397010E94B615909396018093950189
:100C100080E28C0F883008F050C0C77081E001C0BE
:100C2000880FCA95EAF7DF91CF911F910F910C942D
:100C30007C0B10919701161330C080919501909113
:100C400096010E94C2158837910538F5C0E2CD0F94
:100C50001D17B9F080E2810F883040F4177081E0F1
:100C600001C0880F1A95EAF70E94830BC83048F438
:100C700081E09D2F977001C0880F9A95EAF70E9436
:100C80007C0B802F0E94690BC830B8F4D77081E0CC
:100C900001C0880FDA95EAF70AC080E28C0F88302D
:100CA00060F4C77081E001C0880FCA95EAF7DF9150
:100CB000CF911F910F910C94830BDF91CF911F91D6
:100CC0000F9108959C01CB01233F4CE53407F9F0C7
:100CD00078F4283DFCE53F07B9F0293D4CE53407A1
:100CE00011F1273D3C4531F526E241EE61EE1EC093
:100CF000253FFCE53F0799F070F0263F3C45D1F4D5
:100D000027E245EE66EE12C027E245EE0EC026E26F
:100D100041EE60EE0BC027E245EE64EE07C026E22E
:100D200041EE62EE03C028E241E065EE0E94F50567
:100D300080E00895FC018281882319F010929701C8
:100D4000089581E00895CF93DF93EC01FB01828148
:100D5000882309F41FC1C230FCE5DF0708F41BC17A
:100D6000C6319CE5D90738F09E012A5F3C45293001
:100D7000310508F010C10E945F14909350028093D7
:100D80004F02C031ECE5DE0709F4C3C008F041C0F2
:100D9000C8308CE5D80709F49AC0F0F4C430ECE50B
:100DA000DE0709F487C068F4C2308CE5D80709F47F
:100DB00077C0C330DC4509F0E3C080914F02826008
:100DC00076C0C630ECE5DE0709F46EC008F07BC0E3
:100DD00080914F0288606BC0CC308CE5D80709F455
:100DE00085C068F4CA30ECE5DE0709F474C008F089
:100DF00079C00E94E70D80914F02806858C0CE30C4
:100E00008CE5D80709F476C008F07FC080914F02C6
:100E10008BC0CB3FECE5DE0709F44FC018F5C331BA
:100E20008CE5D80709F47DC078F4C131ECE5DE0724
:100E300009F473C0C231DC4509F0A2C00E94E70D7D
:100E400080914F028F7733C0C5318CE5D80709F404
:100E500072C008F486C0CA3FDC4509F091C0809199
:100E600050023EC0CF3FFCE5DF0709F45FC058F4F5
:100E7000CD3F9CE5D90709F444C008F43FC08091F8
:100E8000500282602DC0C130FDE5DF0709F475C056
:100E900008F45DC0C230DD4509F072C080E06EC06C
:100EA00080914F02816003C080914F0280618093E6
:100EB0004F0266C080914F0211C080915002826043
:100EC000809350025DC080914F028062F0CF80918C
:100ED0004F028064ECCF80914F0288608460E7CF3E
:100EE0008160EECF80914F028E7FE1CF80914F02E3
:100EF0008D7FDDCF80914F02877FD9CF80915002C7
:100F000018C0809150028D7FDBCF80914F028F7E81
:100F1000CECF80914F028F7DCACF80914F028F7BC1
:100F2000C6CF80914F02877F8B7FC1CF80915002C7
:100F30008D7F8E7FC5CF80914F0282FB222720F9C3
:100F400091E0922790FB82F990FB83F9B0CF8091DA
:100F50005002982F909591708E7F892B90FB81F98C
:100F6000AFCF0E94E70D80914F0287FB222720F927
:100F700091E0922790FB87F99ACF81E00E94EE14CE
:100F800080914F02909150020E9470140E94E70DD0
:100F900080E001C081E0DF91CF910895CF93DF938E
:100FA00086319C4541F5EB010E949C13282F8A81D4
:100FB0004091090150910A01882379F02A7A91E041
:100FC00009F490E090939801911102C069E201C088
:100FD00065E3CA010E9425150AC08091980181111C
:100FE00002C069E201C065E3CA010E9427150E94A0
:100FF000E81380E001C081E0DF91CF9108958EE198
:10100000489B02C08150E1F7489BFECF0895589855
:1010100080E28A95F1F7589A0895FC013AE03A95F2
:10102000F1F798E020E080E031E040E14A95F1F707
:10103000880F489B02C08160232700C0000040E168
:101040004A95F1F7915089F790E19A95F1F799B1A6
:1010500000C0000030E13A95F1F7917092272081AD
:10106000920F90830895FF920F931F93CF93DF9376
:1010700000D0CDB7DEB71982F82E8C01802F8F19E2
:10108000861760F46A830E94FF07CE0101960E94D2
:101090000D08F80181938F016A81F0CF81E0998179
:1010A000911180E00F900F90DF91CF911F910F91E0
:1010B000FF90089590939B0180939A01609399010A
:1010C000509A589A089590939B0180939A01609347
:1010D00099015098589AE89AE9E6F0E080818C7F6F
:1010E00080830895615091E001C0990F6A95EAF7F5
:1010F00020E031E0992361F0492F482319F0589AF4
:10110000232701C0589840E24A95F1F79695F2CF0F
:10111000222311F0589A01C0589880E28A95F1F77D
:1011200058980895EF92FF920F931F93CF93DF93F8
:101130001F92CDB7DEB7162F082F7C018E2D801B96
:10114000811758F4F70181917F0189830E94070874
:1011500068E089810E947208F1CF0F90DF91CF91F2
:101160001F910F91FF90EF9008951F920F920FB66D
:101170000F9211242F933F934F935F936F937F931D
:101180008F939F93AF93BF93CF93DF93EF93FF938F
:101190005898509AC0919A01D0919B016D81662315
:1011A00021F08E819F810E9492080E94070880E1B1
:1011B0008A95F1F758985098589A80E18A95F1F7F6
:1011C0006A81662351F08B819C810E943308E881FB
:1011D000F981811104C082E003C0E881F98188E0CF
:1011E00080830E94FF07FF91EF91DF91CF91BF9124
:1011F000AF919F918F917F916F915F914F913F91AF
:101200002F910F900FBE0F901F901895CF93DF93E3
:10121000C0919A01D0919B01F894509A589885E01A
:101220008A95F1F700005098589A80E28A95F1F774
:10123000489B0AC0509A589AE881F98181E08083DE
:10124000789481E090E02CC06D81662381F08E81DE
:101250009F810E94330881110AC0509A589AE881F0
:10126000F98182E08083789482E090E019C00E9446
:10127000FF0780E28A95F1F75898509A80E18A95A5
:10128000F1F76A81662321F08B819C810E9492088C
:101290000E940708E881F9811082789480E090E04C
:1012A000DF91CF9108959093A1018093A0010895BB
:1012B000E091A001F091A101309721F00190F0811F
:1012C000E02D099480E00895E091A001F091A10142
:1012D000309721F00280F381E02D09940895209148
:1012E0009E0130919F018217930771F090939F01A7
:1012F00080939E01E091A001F091A101309721F02F
:101300000680F781E02D0994089520919C01309189
:101310009D018217930771F090939D0180939C012A
:10132000E091A001F091A101309721F00084F185B6
:10133000E02D0994089585B7806885BF85B78068DA
:1013400085BF0895089508950C94A30908950C94F9
:10135000A6090E949B090E94A2090C94A4090E945C
:10136000AD150E9444040E9423160C94A709BF9255
:10137000CF92DF92EF92FF920F931F93CF93DF9361
:10138000CDB7DEB72B970FB6F894DEBF0FBECDBF3B
:101390000E94CF040E949505811111C08FEF8983AF
:1013A0008A831B820E94B6158160782F9D838C836F
:1013B00049815A816B818D810E944C0A42C083EA27
:1013C000C82E81E0D82E00E010E0B02E802F0E94C1
:1013D0003804F601E1906F01E82631F40F5F1F4FEA
:1013E0000A30110591F7DACF9091280291FF04C0DD
:1013F0008B870E943E048B8590E0FF24F3942F2D71
:101400002E21D1F09E83BF828F2191E009F490E0DC
:1014100098870E94B6158160782F9A8789874E81B8
:101420005F8168858A850E944C0AF801ED55FE4F60
:101430008081F826F08205C09F5FFF0C9730F9F697
:10144000CDCF1091A2010E9458091817A9F00E944F
:1014500058098093A2012B960FB6F894DEBF0FBEF9
:10146000CDBFDF91CF911F910F91FF90EF90DF9053
:10147000CF90BF900C94D7012B960FB6F894DEBF97
:101480000FBECDBFDF91CF911F910F91FF90EF90D5
:10149000DF90CF90BF900895CF93DF93CDB7DEB7A5
:1014A0002B970FB6F894DEBF0FBECDBF4F83588782
:1014B00069877A878B87DE01119686E0FD0111929C
:1014C0008A95E9F785E0FE01379601900D928A959D
:1014D000E1F749815A816B817C818D819E810E94D7
:1014E00091102B960FB6F894DEBF0FBECDBFDF91E3
:1014F000CF910895FC01808191810E945D13089530
:10150000882309F486C0682F8238C1F40E945809E4
:1015100081FD7FC069E38091090190910A010E94D9
:1015200025150E94E8132FEF81EE94E021508040B2
:101530009040E1F700C0000069E319C08338F9F476
:101540000E94580980FD65C063E580910901909172
:101550000A010E9425150E94E8132FEF81EE94E006
:10156000215080409040E1F700C0000063E5809189
:10157000090190910A010E9427150C94E813843800
:10158000C1F40E94580982FD44C067E480910901BA
:1015900090910A010E9425150E94E8132FEF81EE19
:1015A00094E0215080409040E1F700C0000067E4E3
:1015B000DECF8CEF860F813A38F48091090190914B
:1015C0000A010E942515D9CF80E2860F883048F4A1
:1015D000677081E001C0880F6A95EAF70E949F1347
:1015E000CCCFEBE5E60FE33038F4F0E0EA57FE4FFE
:1015F000808190E00C946F09685A673150F4E62FAF
:10160000F0E0EE0FFF1FE85AFE4F808191810C94AD
:1016100085090895882309F45BC0682F823879F41E
:101620000E94580981FF54C069E38091090190919B
:101630000A010E9425150E94E81369E310C083384F
:10164000B1F40E94580980FF43C063E5809109010D
:1016500090910A010E9425150E94E81363E580918C
:10166000090190910A010E9427150C94E81384380F
:1016700079F40E94580982FF2BC067E48091090128
:1016800090910A010E9425150E94E81367E4E7CFB4
:101690008CEF860F813A18F380E2860F883048F489
:1016A000677081E001C0880F6A95EAF70E94A51370
:1016B000DCCF8BE5860F833020F480E090E00C9443
:1016C0006F09685A673120F480E090E00C94850936
:1016D0000895CF93C82F0E94800AC93349F42FEF91
:1016E00087EE93E0215080409040E1F700C0000079
:1016F0008C2FCF910C940A0B882321F00E949F130A
:101700000C94E8130895882321F00E94A5130C94EB
:10171000E8130895BF92CF92DF92EF92FF920F935A
:101720001F93CF93DF937C01062FC72FFC011581F8
:1017300012951F70D281D1110E94BC130E94951383
:10174000882379F0DD2369F080E2800F883048F04B
:1017500082E00E9433140E94951391E0B82EB926BE
:1017600001C0B12CCC2EC2948FE0C822D12CF6013E
:10177000EA5AFF4F0C94FC1C8C2F807FCF7088237B
:1017800011F0C295C07FDD2399F0CC2309F48CC100
:1017900080E2800F883010F0011104C08C2F0E946D
:1017A0009F1303C08C2F0E94AF130E94E8137CC1CB
:1017B000802F0E940A0BCC2309F49BC180E2800F8A
:1017C000883010F0011104C08C2F0E94A51303C0B3
:1017D0008C2F0E94B5130E94E8138BC18C2F807F41
:1017E000CF70803211F0C295C07F002319F0013014
:1017F000C9F022C0DD2371F0112341F0113031F422
:101800000E94CF138C2B0E94D51373C10E94CF135B
:101810008C2B1DC0112319F0113009F46AC10E94EC
:10182000DE1325C0DD2321F0163008F062C10EC0A2
:10183000153008F05EC11BC0DD2361F0112331F0CB
:10184000F701858180FF30C18F7085838C2F0E94C6
:101850007C0B4FC1112359F0093309F036C1FFEF5A
:1018600027EE83E0F15020408040E1F72CC18C2F1F
:101870000E94830B3EC18C2F86958695837090E0E5
:10188000009719F0019761F034C1DD2321F0802F1A
:101890009C2F937002C080E090E00E946F0934C1D9
:1018A000DD2321F0802F9C2F937002C080E090E018
:1018B0000E94850929C18C2F837009F049C0D1117C
:1018C0001FC1402F429546954770440F440F602F2B
:1018D0006F70862F90E0A0E0B0E0042E04C0880F67
:1018E000991FAA1FBB1F0A94D2F704FF10C00FE074
:1018F00010E020E030E004C0000F111F221F331F52
:101900004A95D2F7009510952095309503C000E0D8
:1019100010E09801C695C695C370D0E0BC01CD011A
:10192000602B712B822B932BC230D10559F0C33021
:10193000D10559F0219719F00E94D611E1C00E94FB
:10194000C411DEC00E94E811DBC00E94C211D8C0E1
:10195000DD2319F08C2F817001C08695882309F44E
:10196000CFC0402F429546954770440F440F602FDB
:101970006F70862F90E0A0E0B0E0042E04C0880FC6
:10198000991FAA1FBB1F0A94D2F704FF10C00FE0D3
:1019900010E020E030E004C0000F111F221F331FB1
:1019A0004A95D2F7009510952095309503C000E038
:1019B00010E09801C695C695C370D0E0BC01CD017A
:1019C000602B712B822B932BC230D10559F0C33081
:1019D000D10559F0219719F00E949C1291C00E94E4
:1019E0008A128EC00E94AE128BC00E94FD1188C068
:1019F000CF70DD2339F08C2F0E942312802F0E949C
:101A00007C0B7EC0802F0E94830B8C2F0E9444127F
:101A100077C0023F01F128F4003F41F0013FA1F0FF
:101A20003FC0033FF9F0043F39F13AC0DD2341F0F4
:101A3000153008F05EC08C2F8F710E94691259C05A
:101A4000163008F056C0F7CFDD2339F08C2F8F7198
:101A50000E9423124EC0DD23C9F38C2F8F710E9488
:101A6000441247C0DD2329F08C2F8F710E940E1283
:101A700040C00E9409123DC0DD2349F0CF718C2F78
:101A80000E94231263E08C2F0E941E1432C081E05A
:101A90000E943314123068F182E00E94331429C08E
:101AA000DD2331F0112391F2802F0E94800A21C0A2
:101AB000112399F2093349F49FEFE7EEF3E09150D7
:101AC000E040F040E1F700C00000802F0E940A0BC8
:101AD00010C04C2F4F70602FC7010E9431020E942E
:101AE000351112C04C2F4F70602FC7010E94340275
:101AF0000BC028E0C21AD10884E0C816D10420F433
:101B00000E9458090E94D701BB20D1F00E94911376
:101B100080FD16C0F70112820E948B130E942312CF
:101B2000C7010E94AA0D0E948B13DF91CF911F91D4
:101B30000F91FF90EF90DF90CF90BF900C944412E4
:101B4000DF91CF911F910F91FF90EF90DF90CF9099
:101B5000BF9008950F931F93CF93DF93EC0188817B
:101B600099812B813C81232BB9F09F3F11F48F3F4A
:101B700099F0CE010E94F501882371F06881798186
:101B80008A810E9468138C010E94C0120E94C111B8
:101B9000B801CE010E948A0BDF91CF911F910F9166
:101BA00008950E94BC130E94CC130E94E81380E0A9
:101BB00090E00E946F0980E090E00C94850980918C
:101BC000090190910A010E9429150C94D10D0E94DF
:101BD000AC130C94DF0DE92FE295EF70F0E0329733
:101BE000EE30F105B0F4EA59FF4F0C94FC1C803F35
:101BF00091F018F4883E68F40EC0843F51F40BC095
:101C0000883E48F0813F29F406C093FB882780F97D
:101C1000089580E0089581E008950E945D130E9478
:101C2000EB0D0895CF93DF9300D000D01F92CDB776
:101C3000DEB70F900F900F900F900F90DF91CF9124
:101C40000895CF93DF9300D000D000D0CDB7DEB79A
:101C500026960FB6F894DEBF0FBECDBFDF91CF91B1
:101C600008951F93CF93DF93C091AE0116E080914A
:101C7000AF01C81799F0D0E01C9FF0011D9FF00D37
:101C80001124E055FE4F408151816281738184812E
:101C900095810E94210E2196C770E9CFDF91CF91E7
:101CA0001F9108954091E0015091E1016091E2019E
:101CB0007091E3018091E4019091E5010C94210E73
:101CC0008091E50182958F7009F054C08091E20106
:101CD000882309F44FC08091AE01A091AF016091BB
:101CE000E0017091E1014091E3015091E401B6E01F
:101CF0008A1709F43FC090E041155105C1F17F3FBB
:101D000011F46F3FA1F1B89FF001B99FF00D1124BC
:101D1000E055FE4F218172132AC02081621327C033
:101D20002281211124C0238134812417350710F426
:101D300021503109241B350B28373105C0F420917F
:101D4000E5012F7020612093E50126E0289FF00136
:101D5000299FF00D1124EB54FE4F80818F7080611C
:101D6000808380EE91E00E94AA0D0C94310E0196C2
:101D70008770BECF0895CF92DF92EF92FF920F93BC
:101D80001F93CF93DF93CDB7DEB762970FB6F8946A
:101D9000DEBF0FBECDBF8C0185E0F801DE011D96D0
:101DA00001900D928A95E1F7D8014C9111965C91C2
:101DB000119712966C9112971396CD90DC90149710
:101DC0003091E0017091E1018091E3019091E40193
:101DD000009709F46BC17F3F19F43F3F09F466C1D6
:101DE000E090E201EE2009F4C0C02091E501C816A0
:101DF000D90628F0F601E81BF90BCF0104C0809545
:101E000090958C0D9D1DFF24F3948837910578F0F3
:101E1000F12C207F09F0C6C07C2DD98AC88A898917
:101E20000E94120E80EE91E00E94AA0DB1C0822F96
:101E3000807F09F046C0751314C0341312C06111BD
:101E400010C02F7020612093E5010E94520E80EE99
:101E500091E00E94AA0D8091E501D80115968C931E
:101E60002EC0CD2819F15F3F11F44F3FF9F0F62E47
:101E700061111CC08091AE012091AF0136E0821744
:101E800009F45AC090E0389FF001399FF00D1124F9
:101E9000E055FE4F7181571306C07081471303C090
:101EA0007281711103C001968770E9CFF62E662307
:101EB00009F427C18091E50181608093E501F12C4F
:101EC00020C1751308C0341306C0611104C080918D
:101ED000E501D801C3C04D875E878D859E856A8BDD
:101EE0000E940D0E6A898823E1F16623D1F12091C9
:101EF000E501822F82958F7090E0029774F08091B7
:101F0000E0019091E10198878F831986DB86CA866C
:101F10002C87CE0107960E94AA0D86E0F801A0EE5C
:101F2000B1E001900D928A95E1F70E94600E0E9447
:101F3000520EFF24F394E5C04D875E878D859E8504
:101F40000E945D13292F22952F7030E02230310539
:101F50000CF0CBC09F7009F0C5C0805E883008F4DB
:101F6000D0C0C8010E94AA0DE4CFC816D90608F453
:101F700053C0F601E81BF90BCF018837910508F42F
:101F800050C0F12C7C2DD98AC88A89890E94120EF2
:101F9000E0EEF1E086E0DF011D928A95E9F70E940C
:101FA000520EAFC0751314C0341312C0611110C0AB
:101FB0008091E501F8018583C8010E94AA0D86E0A1
:101FC000E0EEF1E0DF011D928A95E9F7FE2C99C061
:101FD0004D875E878D859E856A8B0E940D0E6A896E
:101FE000882309F4BECF662309F4BBCF2091E50115
:101FF000822F82958F7090E002970CF48ECF8091A3
:10200000E0019091E1019A8389831B82DD82CC8279
:102010002E83CE0101967FCF809590958C0D9D1DCE
:10202000ACCFF62E662309F49CCF75132EC0341363
:102030002CC02091E50120FD1FC0822F82958F705A
:10204000D9F0D80115962C9315978F3049F08F5FF2
:10205000982F9295907F822F8F70892B15968C9355
:10206000C8010E94AA0D86E0F801A0EEB1E001903F
:102070000D928A95E1F793CF86E0F801A0EEB1E0EA
:1020800001900D928A95E1F73CC04D875E878D8562
:102090009E850E940D0E811140CF8091E5018160E7
:1020A0008093E501C8010E94AA0D2BC0662309F4A4
:1020B00058CF4D875E878D859E850E940D0EF82E28
:1020C000882309F44ECF86E0F801A0EEB1E001903C
:1020D0000D928A95E1F780EE91E00E947A0A0E94C3
:1020E000600E5DCF811139CF0CC0243031050CF06A
:1020F00038CF9F7009F431CFF8019581907F09F0B6
:102100002CCF8F2D62960FB6F894DEBF0FBECDBFD9
:10211000DF91CF911F910F91FF90EF90DF90CF90C3
:1021200008951F93CF93DF93CDB7DEB72C970FB6EB
:10213000F894DEBF0FBECDBF4F83588769877A877B
:102140008B879C87CE0107960E94BB0E882369F07F
:102150008F8198852A853B85232BF1F19F3F09F0DC
:1021600063C08F3F09F060C037C086E0FE0137963C
:10217000DE01119601900D928A95E1F76F817885C5
:10218000EA85FB85309741F17F3F11F46F3F21F1E4
:102190002091AF0130E0C9010196877099274091E5
:1021A000AE0150E08417950709F447C069837A832C
:1021B000FD83EC8396E0929FD001939FB00D112494
:1021C000A055BE4FFE01319601900D929A95E1F710
:1021D0008093AF010E94310E16E08091AE01909184
:1021E000AF018917C1F1189FC001112480559E4F7E
:1021F0000E94BB0E882379F1E091AE011E9FF00191
:102200001124E055FE4F40815181628173818481A8
:1022100095810E94210E8091AE0190E00196877019
:1022200099278093AE01D9CF4F81588569857A85EA
:102230008B859C850E94210ECFCF0E94E70D1092C6
:10224000AF011092AE01E0EEF1E086E0DF011D92F9
:102250008A95E9F7C1CF2C960FB6F894DEBF0FBE72
:10226000CDBFDF91CF911F910895EF92FF920F9311
:102270001F93CF93DF938C01892B09F46CC0F12C51
:10228000EE24E394E8012196F8018491843740F428
:10229000843008F051C0813081F0823019F15BC088
:1022A000853709F444C0A8F19CE7980F903708F0EF
:1022B00052C08F770E940A0B41C00E5F1F4FFE0174
:1022C000C49180E28C0F883048F4C7708E2D01C015
:1022D000880FCA95EAF70E94BF1314C08C2F0E9482
:1022E000800A2DC00E5F1F4FFE01C49180E28C0F4B
:1022F000883058F4C7708E2D01C0880FCA95EAF750
:102300000E94C5130E94E8131AC08C2F0E940A0B6A
:1023100016C00E5F1F4FFE01C491CC2381F08FE9E0
:102320009FE00197F1F700C00000C150F6CF0E5FAB
:102330001F4FFE01F49003C00E94800A8E018F2D72
:10234000882309F49FCFEFE9FFE03197F1F700C050
:1023500000008150F5CFDF91CF911F910F91FF9039
:10236000EF90089508950C94B2110E94B3116093F8
:102370001702709318028093190290931A020C941A
:10238000D10D08950C94B5110F931F93009117026E
:10239000109118022091190230911A02602B712BB2
:1023A000822B932B1F910F910C94B5110F931F93B8
:1023B00000911702109118022091190230911A020F
:1023C00060237123822393231F910F910C94B511E5
:1023D0000F931F9300911702109118022091190278
:1023E00030911A0260277127822793271F910F913E
:1023F0000C94B51108950C94FA110E94FB1160938E
:1024000013027093140280931502909316020C9499
:10241000D10D60E070E0CB010C94FD110F931F9380
:1024200041E050E060E070E08A019B0104C0000FD1
:10243000111F221F331F8A95D2F7C901B8011F91BE
:102440000F910C94FD110F931F9341E050E060E059
:1024500070E004C0440F551F661F771F8A95D2F79E
:102460008091130290911402A0911502B09116026E
:102470008A019B01082B192B2A2B3B2BC901B80180
:102480001F910F910C94FD110F931F9341E050E0A9
:1024900060E070E004C0440F551F661F771F8A95E7
:1024A000D2F7409550956095709580911302909168
:1024B0001402A0911502B09116028A019B01082313
:1024C00019232A233B23C901B8011F910F910C94B2
:1024D000FD110F931F9341E050E060E070E004C0F5
:1024E000440F551F661F771F8A95D2F780911302FC
:1024F00090911402A0911502B09116028A019B01DD
:10250000082719272A273B27C901B8011F910F91D6
:102510000C94FD110F931F9300911302109114025C
:102520002091150230911602602B712B822B932B78
:102530001F910F910C94FD110F931F9300911302A3
:10254000109114022091150230911602602371231C
:10255000822393231F910F910C94FD110F931F93CE
:10256000009113021091140220911502309116026D
:1025700060277127822793271F910F910C94FD11DB
:10258000089527E0929F800D1124A82FA695A69567
:10259000A695877051E001C0550F8A95EAF785E04E
:1025A000A89FD001112420E030E070E0F901EA0F8B
:1025B000FB1FEA51FE4F4081CB01022E02C09695CF
:1025C00087950A94E2F7817099278195842785235E
:1025D000842780832F5F3F4F2530310539F70895D9
:1025E00027E0929F800D1124682F66956695669569
:1025F000982F977085E0689FB001112440E050E06B
:1026000080E0FA01E60FF71FEA51FE4F208130E02B
:10261000092E02C0369527950A94E2F721703327D8
:10262000042E01C0220F0A94EAF7822B4F5F5F4FFE
:102630004530510531F70895BF92CF92DF92EF9266
:10264000FF920F931F93CF93DF938C01C0901702DB
:10265000D0901802E0901902F0901A0280911302B3
:1026600090911402A0911502B0911602C82AD92A9D
:10267000EA2AFB2ACFE1D0E0D701C6010C2E04C024
:10268000B695A795979587950A94D2F780FF07C0CE
:10269000BC2EB8018C2F0E944F02019719F421978C
:1026A00058F7B12C8B2DDF91CF911F910F91FF9097
:1026B000EF90DF90CF90BF900895CF93DF93EC0120
:1026C0000E941C13BE010E944F02DF91CF9108951A
:1026D0001F93CF93DF93EB019091AD01992321F0EC
:1026E000CB010E945D1313C0882349F0CB010E94E7
:1026F0001C13182F682FCE010E94C11204C0CB01F9
:102700000E94F012182FBE01812F0E944F02DF910C
:10271000CF911F91089580911B0285958595859590
:10272000089580911B028770089590911B02977005
:1027300081E009F480E00895809127020895909146
:102740002702892B80932702089580959091270274
:10275000892380932702089510922702089590916B
:102760002602892B80932602089580959091260257
:10277000892380932602089510922602089590914D
:102780002502892B8093250208958095909125023A
:10279000892380932502089510922502089580913F
:1027A0001C02089508950C94D21390911C0298175E
:1027B00021F080931C020C94D313089580911C0285
:1027C000882329F010921C0280E00C94D313089502
:1027D000E0910901F0910A01809127028083E09144
:1027E0000901F0910A01908180912602892B808352
:1027F000E0910901F0910A01908180912502892BD5
:10280000808380911C02882381F0E0910901F0917E
:102810000A019081892B80838091090190910A019E
:102820000E94F31481110E94DE138091090190919E
:102830000A010C94640908950C941B1498E0899F74
:1028400090011124262B20931B020E9423128091B9
:102850001B028595859585950C941C1410921B027E
:1028600080E00C941C1420911B028095822380939D
:102870001B02982F977079F430E0482F082E000C37
:10288000550B2417350739F08595859585950E9458
:1028900044120C942E14089580E090E00E940A1DCA
:1028A00021E08C3E9E4F09F020E0822F089582E0C7
:1028B00090E00C94021D83E090E00C94021DCF93F5
:1028C00084E090E00E94021DC82F81E290E00E9407
:1028D000021D2C2F30E0A901582BCA01CF91089579
:1028E000CF93C92F682F84E090E00E94101D6C2FB9
:1028F00081E290E0CF910C94101DAB01BC018FE000
:1029000090E00C94221DAB01BC0183E190E00C949B
:10291000221D60E070E0CB010C94831460E070E055
:10292000CB010E947D140C9489146CEE7EEF80E044
:1029300090E00E942E1D60E082E090E00E94101D59
:1029400060E083E090E00E94101D10921702109248
:1029500018021092190210921A0260E084E090E0CE
:102960000E94101D60E081E290E00E94101D60E076
:1029700085E090E00E94101D60E086E090E00E94FB
:10298000101D6FEF87E090E00E94101D40E050E0C6
:10299000BA0188E090E00E94221D60E08DE090E0A6
:1029A0000E94101D40E050E0BA0188E190E00E94D2
:1029B000221D60E087E190E00E94101D40E050E0A1
:1029C000BA018CE190E00E94221D60E080E290E07C
:1029D0000E94101D0C948E140C949514682F8EE098
:1029E00090E00C94101DFC01329697E080E091502D
:1029F00029F021912223D9F38F5FF9CF08959C010B
:102A0000FC0132969FEF80E04191461789F09F3F8D
:102A100019F4411101C0982F8F5F8630A9F79F3FAD
:102A200039F0F901E90FF11D97FDFA9562830895D8
:102A30000895FC01329608962081261301C0108269
:102A40003196E817F907C1F708950C94FF140C9418
:102A50001915029626E0FC0111922A95E9F70895CE
:102A600008950C9430150E943115809155028430E0
:102A700049F11092290220E488E190E00FB6F89421
:102A8000A895809360000FBE2093600080E00E94B4
:102A9000D7010E94311583B7817F846083BF83B7DC
:102AA000816083BF7894889583B78E7F83BF0FB68C
:102AB000F894A895809160008861809360001092DE
:102AC00060000FBE089508950895CF930E94631586
:102AD0000E94CF040E946415C0E08C2F0E9438042D
:102AE000811104C0CF5FCA30C1F701C081E0CF912E
:102AF000089508950C9479150E94E70D0E945809D5
:102B00000E94D7010C947A151F920F920FB60F9264
:102B100011248F939F93AF93BF93809129028111CA
:102B200013C080914B0290914C02A0914D02B09144
:102B30004E024196A11DB11D80934B0290934C0211
:102B4000A0934D02B0934E02BF91AF919F918F9190
:102B50000F900FBE0F901F90189582E084BD93E0F8
:102B600095BD9AEF97BD80936E0008952FB7F894A6
:102B700080914B0290914C02A0914D02B0914E0277
:102B80002FBF0895CF92DF92EF92FF920F931F9382
:102B90002FB7F89440914B0250914C0260914D0236
:102BA00070914E022FBF6A017B01EE24FF248C013D
:102BB00020E030E0C016D106E206F30610F44150E2
:102BC00051099A01281B390BC9011F910F91FF90E0
:102BD000EF90DF90CF90089578941F920F920FB6E8
:102BE0000F9211248F939F93AF93BF9380914B02C9
:102BF00090914C02A0914D02B0914E020196A11D00
:102C0000B11D80934B0290934C02A0934D02B09360
:102C10004E02BF91AF919F918F910F900FBE0F9079
:102C20001F90189587E797E7909301088093000815
:102C30009AE088E10FB6F894A895809360000FBEE3
:102C400090936000FFCF0E944C14811102C00E943B
:102C5000EC140E945714809328020E945F149093F2
:102C6000500280934F020E945B14682F70E080E056
:102C700090E00C94C2118091320208950895CF9390
:102C8000DF9300D01F92CDB7DEB7909155029430FC
:102C900019F589837B836A8382E08093E9008FEF53
:102CA0009091E800815095FD06C095ED9A95F1F759
:102CB00000008111F5CF8091E80085FF0DC040E054
:102CC00050E063E070E0CE0101960E9460188091B0
:102CD000E8008E778093E8000F900F900F90DF91BF
:102CE000CF910895CF93DF93EC010E944318823077
:102CF00011F0843031F4BE0184E0DF91CF910C9467
:102D00003F16DF91CF910895BC016058710983E0AF
:102D10000C943F16CF93DF93EC010E94431882304E
:102D200011F0843039F581E08093E9008FEF9091C4
:102D3000E800815095FD06C095ED9A95F1F70000E9
:102D40008111F5CF8091E80085FF14C040E050E08C
:102D500068E070E0CE010E9460188091E8008E77F4
:102D60008093E80088E0FE01AAE2B2E001900D92B3
:102D70008A95E1F7DF91CF910895809154028111F6
:102D800009C00E94F5190E94521A8091E2008460E5
:102D90008093E200089510925402089508950895D2
:102DA0000C947C1542E061EC81E00E946F1942E2D4
:102DB00061EC82E00C946F1980915702833009F422
:102DC00060C030F4813071F0823009F499C0089508
:102DD0008A3009F485C08B3009F46BC0893009F062
:102DE000A7C020C080915602813A09F0A1C080910D
:102DF000E800877F8093E80080915A0290915B02FF
:102E0000892B21F468E08AE292E003C060E080E070
:102E100090E070E00E94AB188091E8008B7780937F
:102E2000E800089580915602813209F081C08091B6
:102E30005A0290915B02029708F07AC08091E800F4
:102E4000877F8093E8008091E80082FD05C0809133
:102E500055028111F8CF6CC02091F3008091F200EF
:102E600090E0922B029729F48091F1008B7F8130C2
:102E700021F48091F100809332028091E8008B77F9
:102E800053C080915602813A09F052C080915A0293
:102E900090915B02892B09F04BC08091E800877FFD
:102EA0008093E8008091E80080FFFCCF80911501BD
:102EB00036C0809156028132D9F580915A029091A4
:102EC0005B02892BA9F58091E800877F8093E80059
:102ED0000E94A41980915802809315010C94E70D6B
:102EE00080915602813221F58091E800877F80939E
:102EF000E8000E94A419809159028093330208953A
:102F000080915602813AA1F48091E800877F8093F6
:102F1000E8008091E80080FFFCCF8091330280932D
:102F2000F1008091E8008E778093E8000C94A4195A
:102F3000089584B7877F84BF0FB6F894A8958091D1
:102F40006000886180936000109260000FBE90E086
:102F500080E80FB6F89480936100909361000FBEF3
:102F60000E94A9090E94F5190E94521A8091E2005C
:102F700084608093E20078940E94E11C0E94AF0973
:102F80008BE091E00E94530980915502853069F4ED
:102F90000E943315809153028823B1F30E94651576
:102FA000882391F30E944A18EFCF0E94B709ECCF13
:102FB0000C94DA17292F332723303105C9F064F434
:102FC0002130310581F02230310509F04CC08BE30E
:102FD00090E024EB31E04BC02132310521F1223267
:102FE000310589F140C082E190E02FEE31E03FC031
:102FF00099278130910571F02CF4892BA1F5E0EB34
:10300000F1E00DC08230910541F0039761F5E8E8E9
:10301000F1E005C0E2EAF1E002C0EEE8F1E08491FF
:1030200090E09F0124C06115710541F06130710588
:10303000D1F489E090E02FED31E019C089E090E013
:1030400026EC31E014C06115710541F06130710565
:1030500051F486E390E021E032E009C080E490E0A2
:1030600027E332E004C080E090E020E030E0FA01A5
:1030700031832083089580915502843011F081E0DE
:10308000089582E0089580913402811102C00C9469
:103090003B18089580E189BD82E189BD09B400FE35
:1030A000FDCF8091D8008F7D8093D8008091E00083
:1030B00082608093E0008091E00081FDFCCF089564
:1030C000CF92DF92EF92FF920F931F93CF93DF93F4
:1030D000EC018B016A010E94C319811133C0C11434
:1030E000D10439F0F60180819181081B190BC80FBA
:1030F000D91FE12CF12C0115110519F18091E8007F
:1031000085FD16C08091E8008E778093E800C11499
:10311000D10449F0F60180819181E80EF91EF18217
:10312000E08285E00FC00E94C319882321F30AC002
:1031300089918093F10001501109FFEFEF1AFF0A06
:10314000DACF80E0DF91CF911F910F91FF90EF9048
:10315000DF90CF90089520915C0230915D02261798
:10316000370748F06115710539F42091E8002E7792
:103170002093E80001C0B90140E061157105A9F193
:1031800020915502222309F443C0253009F442C09E
:103190002091E80023FD40C02091E80022FD32C0CC
:1031A0002091E80020FFE9CF4091F3002091F20048
:1031B00030E0342BFC01CF016115710559F0283046
:1031C000310540F481918093F100615071092F5FC6
:1031D0003F4FF1CF41E02830310509F040E0209128
:1031E000E8002E772093E800C8CF4111C9CF0AC06C
:1031F00080915502882361F0853061F08091E8006C
:1032000083FD0AC08091E80082FFF2CF80E008953C
:1032100082E0089583E0089581E0089520915C02A2
:1032200030915D022617370748F06115710539F4B2
:103230002091E8002E772093E80001C0B901FC013D
:1032400020E06115710591F180915502882309F400
:1032500040C0853009F43FC08091E80083FD3DC047
:103260008091E80082FD2FC08091E80080FFE9CFC7
:103270002091F3008091F20090E0922B611571058E
:1032800059F08830910540F424912093F100319653
:10329000615071090196F2CF21E0089709F020E012
:1032A0008091E8008E778093E800CBCF2111CCCFBE
:1032B0000AC080915502882361F0853061F08091C9
:1032C000E80083FD0AC08091E80082FFF2CF80E031
:1032D000089582E0089583E0089581E00895982F8D
:1032E000973058F59093E900981739F07091EC00F9
:1032F0002091ED005091F00003C0242F762F50E074
:1033000021FF19C03091EB003E7F3093EB003091EC
:10331000ED003D7F3093ED003091EB003160309354
:10332000EB007093EC002093ED005093F00020919F
:10333000EE0027FF07C09F5FD3CF8F708093E90017
:1033400081E0089580E008958091560287FF11C0C2
:103350008091E80082FD05C0809155028111F8CF6F
:1033600011C08091E8008B770BC0809155028823B3
:1033700049F08091E80080FFF8CF8091E8008E77D7
:103380008093E80008952091E4003091E50095E6EF
:103390004091EC00842F817040FF22C08091E800B2
:1033A00080FD1CC080915502882391F0853091F0FA
:1033B0008091EB0085FD10C04091E4005091E50044
:1033C0004217530729F39A01915011F784E00895A9
:1033D00082E0089583E0089581E0089580E00895F3
:1033E0004091E80042FFDECF08950E94631A0E94D8
:1033F0006B1AE0EEF0E0808181608083E8EDF0E020
:1034000080818F77808319BCA7EDB0E08C918E7F8F
:103410008C9380818F7E80831092540208950F9345
:103420001F93CF93DF930E94631A0E946B1AC8ED1B
:10343000D0E088818F7788838881806888838881BD
:103440008F7D888319BC1092550210925102109200
:1034500053021092520200EE10E0F80180818B7F3F
:10346000808388818160888342E060E080E00E9400
:103470006F19E1EEF0E080818E7F8083E2EEF0E074
:10348000808181608083808188608083F801808171
:103490008E7F8083888180618883DF91CF911F91A7
:1034A0000F910895E8EDF0E080818F7E8083E7ED55
:1034B000F0E080818160808384E082BF81E080933E
:1034C00054020C940F1AE8EDF0E080818E7F808327
:1034D0001092E20008951092DA001092E10008952F
:1034E0001F920F920FB60F9211242F933F934F9379
:1034F0005F936F937F938F939F93AF93BF93EF935C
:10350000FF938091E10082FF0BC08091E20082FF77
:1035100007C08091E1008B7F8093E1000E94E01C56
:103520008091DA0080FF1FC08091D80080FF1BC00F
:103530008091DA008E7F8093DA008091D90080FF3D
:103540000DC080E189BD82E189BD09B400FEFDCFD7
:1035500081E0809355020E94BD1605C019BC1092EF
:1035600055020E94CB168091E10080FF19C0809126
:10357000E20080FF15C08091E2008E7F8093E20020
:103580008091E20080618093E2008091D8008062A7
:103590008093D80019BC85E0809355020E94CF1615
:1035A0008091E10084FF30C08091E20084FF2CC054
:1035B00080E189BD82E189BD09B400FEFDCF809123
:1035C000D8008F7D8093D8008091E1008F7E80931A
:1035D000E1008091E2008F7E8093E2008091E20022
:1035E00081608093E20080915102882311F084E091
:1035F00007C08091E30087FD02C081E001C083E045
:10360000809355020E94D0168091E10083FF29C06B
:103610008091E20083FF25C08091E100877F809345
:10362000E10082E080935502109251028091E10006
:103630008E7F8093E1008091E2008E7F8093E20094
:103640008091E20080618093E20042E060E080E0EF
:103650000E946F198091F00088608093F0000E94B2
:10366000CE16FF91EF91BF91AF919F918F917F9176
:103670006F915F914F913F912F910F900FBE0F90DF
:103680001F9018951F920F920FB60F9211242F932F
:103690003F934F935F936F937F938F939F93AF93DA
:1036A000BF93CF93DF93EF93FF93C091E900CF7067
:1036B0008091EC00D82FD17080FDD0E81092E90005
:1036C0008091F000877F8093F00078940E94861BA1
:1036D0001092E9008091F00088608093F000CD2B7B
:1036E000CF70C093E900FF91EF91DF91CF91BF912F
:1036F000AF919F918F917F916F915F914F913F918A
:103700002F910F900FBE0F901F9018951F93CF937E
:10371000DF93CDB7DEB7AA970FB6F894DEBF0FBE22
:10372000CDBFE6E5F2E088E08E0F9091F100919335
:103730008E13FBCF0E94DC168091E80083FF28C126
:103740008091560290915702492F50E04A3051051E
:1037500008F01EC1FA01EC58FF4F0C94FC1C803895
:1037600021F0823809F014C108C080915202909172
:103770005302992389F082600FC080915A028F70A2
:10378000873008F005C18093E9008091EB0085FB4C
:10379000882780F91092E9009091E800977F909334
:1037A000E8008093F1001092F100D0C0282F2D7F07
:1037B00009F0EEC0882319F0823061F0E9C08091F1
:1037C0005802813009F0E4C0933009F080E0809322
:1037D00053022EC08091580281112AC080915A0252
:1037E0008F702FEF280F263008F0D2C08093E900A9
:1037F0002091EB0020FF1CC0933021F48091EB005E
:10380000806214C09091EB0090619093EB0021E0F6
:1038100030E0A90102C0440F551F8A95E2F740939A
:10382000EA001092EA008091EB0088608093EB0040
:103830001092E9008091E800877F8093E8000E9461
:10384000A419A6C08111A4C0109158021F778091BD
:10385000E3008078812B8093E3008091E800877FEC
:103860008093E8000E94A4198091E80080FFFCCFBB
:103870008091E30080688093E300111102C082E030
:1038800001C083E08093550283C08058823008F0E5
:103890007FC080915802909159028C3D53E095076A
:1038A00079F583E08A838AE289834FB7F894DE0151
:1038B000139620E03EE051E2E32FF0E050935700F2
:1038C000E49120FF03C0E295EF703F5FEF708E2F11
:1038D00090E0EA3010F0C79601C0C0968D939D939A
:1038E0002F5F243149F74FBF8091E800877F809395
:1038F000E8006AE270E0CE0101960E94AB1815C0A4
:1039000060915A0270915B02AE014F5F5F4F0E945F
:10391000D817BC01892BE1F19091E800977F909333
:10392000E80089819A810E940E198091E8008B77C6
:103930008093E8002DC0803859F58091E800877F9A
:103940008093E800809151028093F1008091E8001B
:103950008E7773CF81111CC0909158029230C0F4C1
:103960008091E800877F8093E800909351020E9445
:10397000A41980915102811106C08091E30087FD56
:1039800002C081E001C084E0809355020E94D216FB
:103990008091E80083FF0AC08091E800877F8093D0
:1039A000E8008091EB0080628093EB00AA960FB64E
:1039B000F894DEBF0FBECDBFDF91CF911F91089568
:1039C0000895CF93809155028823A1F0C091E9001A
:1039D000CF709091EC00892F817090FD80E8C82B0A
:1039E0001092E9008091E80083FD0E94861BCF7051
:1039F000C093E900CF910895EE0FFF1F0590F49159
:103A0000E02D0994F999FECF92BD81BDF89A9927CE
:103A100080B50895A8E1B0E042E050E00C94361D76
:103A2000262FF999FECF92BD81BDF89A019700B477
:103A3000021639F01FBA20BD0FB6F894FA9AF99A17
:103A40000FBE08950396272F0E94111D0E94101D7E
:103A5000252F0E94111D242F0C94111D0196272F34
:103A60000E94111D0C94101DDC01CB01FC01F99981
:103A7000FECF06C0F2BDE1BDF89A319600B40D92BA
:0C3A800041505040B8F70895F894FFCF73
:103A8C00018F010090010590011D023B168A163E24
:103A9C00168416721601E200E900EA00B500B600C1
:103AAC00B700CD008301CC008A0192019401210260
:103ABC00230224022502260227022A02B300B400A4
:103ACC006F007000818283F4F5F6F73133329497EE
:103ADC00C634350000000000E200E900EA00B50041
:103AEC00B600B700CD008301CC008A01920194018D
:103AFC002102230224022502260227022A02B300F5
:0A3B0C00B4006F0070008182830096
:00000001FF
